:020000040000FA
:2000000000000420C11C0000E91C0000EB1C0000ED1C0000EF1C0000F11C000000000000B2
:20002000000000000000000000000000F31C0000F51C000000000000F71C0000F91C000078
:20004000A511000051100000B5060000FB1C0000FB1C0000FB1C0000F9160000FB1C000063
:2000600005060000FB1C0000FB1C0000D5120000FB1C0000F9180000FB1C0000FB1C00000A
:2000800029190000FB1C0000FB1C0000FB1C0000FB1C0000FB1C0000FB1C0000FB1C00007D
:2000A000FB1C0000FB1C0000FB1C0000FB1C0000FB1C0000FB1C00000000000000000000B6
:2000C000FB1C0000FB1C0000FB1C0000FB1C0000FB1C0000FB1C0000FB1C0000FB1C000068
:2000E000FB1C0000FB1C0000FB1C00000000000000000000FB1C000000000000FB1C00008D
:200100000000000000000000000000000000000000000000000000000000000000000000DF
:200120000000000000000000000000000000000000000000000000000000000000000000BF
:2001400000000000000000000000000000000000000000000000000000000000000000009F
:2001600000000000000000000000000000000000000000000000000000000000000000007F
:2001800000000000000000000000000000000000000000000000000000000000000000005F
:2001A00000000000000000000000000000000000000000000000000000000000000000003F
:2001C00000000000000000000000000000000000000000000000000000000000000000001F
:2001E0000000000000000000000000000000000000000000000000000000000000000000FF
:20020000044B05481B1A062B02D9044B03B11847704700BFAB020020A80200200000000092
:2002200005490648091A891001EBD171491002D0034B03B118477047A8020020A802002061
:200240000000000010B5064C237843B9FFF7D8FF044B13B10448AFF300800123237010BD1E
:20026000A8020020000000009453000008B5084B1BB108490848AFF300800848036813B9A7
:20028000BDE80840CCE7064B002BF9D09847F7E700000000AC02002094530000A402002041
:2002A00000000000154B002B08BF134B9D46A3F5803A00218B460F461348144A121A04F039
:2002C000FDFD0F4B002B00D098470E4B002B00D098470020002104000D000D48002802D01C
:2002E0000C48AFF3008000F02BF82000290001F005FD00F011F800BF000008000000042055
:200300000000000000000000A802002020100020000000000000000008B5074B044613B1A6
:200320000021AFF30080054B1868836A03B19847204600F02BF800BF00000000184F00008B
:2003400070B50E4B0E4CE41AA41000251E46A54204D056F8253098470135F8E704F0D0FD77
:20036000084C094BE41AA41000251E46A54204D056F8253098470135F8E770BD9C0200205D
:200380009C020020A00200209C020020FEE700BF08B502F09BFCBDE8084002F019BD00BFC1
:2003A00000B585B002F0FEFB002002F071FA00F04FF902F085FDF420CE2136224FF08053D2
:2003C0008DF808008DF809108DF80A20D3F8A8208DF80B2004A9D3F8A43041F80C3D04220C
:2003E00003A804F082FD02A90822034804F07DFD05B05DF804FB00BFD80F00200021014818
:2004000001F0E6BF1002002010B500F0ADF90446BFF35F8F02F06EF800B930BFBFF35F8F2F
:200420002046BDE8104000F0A3B900BF802802D1024B00221A600120704700BF04C5004052
:200440000120704730B5154C012383B0236000F0CDF86FF003052D1A03E000F0C7F8C542A8
:2004600003D5D4F80031002BF7D00C4B0022C3F80021D3F80825920508D4D3F80835074A9C
:20048000019301235360019803B030BDD3F808356FEA83536FEA9353F1E700BF00C00040AB
:2004A00070B5044690B10078A0B189B16618002504E014F8010F38B1B44205D000F0B4F896
:2004C000631C05F10105F4D1284670BD0546FBE70D46F9E70546F7E730B5164B83B000221D
:2004E0001A6001F0A3FB08B100F0E8FD002001F0B9FB114B114A18689B880090ADF80430DD
:20050000FF25062400230E48ADF8005069468DF802408DF8043000F075FE08B100F0CEFD19
:200520000121074800F0C0FE054800F0B1FE03B030BD00BFC4020020744F00007105000032
:200540007C4F0000014B1868704700BFC402002008B5064A13680133136001F03FFE00B992
:2005600008BDBDE8084001F019BE00BFC4020020042800D07047FFF7EBBF00BF30B4154A07
:20058000154B16490020106082B012680192019AD3F8102522F00F0242F00802C3F81025E3
:2005A000D3F8082542F00302C3F80825D3F804254FF480704FF4803522F003020124C3F80E
:2005C0000425C3F80453C1F8800108601C6002B030BC7047408100400080004000E100E0EB
:2005E000014BC3F84005704700800040034A044B01211160D3F84405704700BF448000407B
:2006000000800040074B1A6802B9704700B500221A6083B01B680193019B01F0A3FF03B057
:200620005DF804FB40810040074B0849C3F81C050B68064A002BFBD00023136082B01368EA
:200640000193019B02B07047002000401C210040F0B4144B1448154F154C4FF0A0410022BE
:2006600003264025C3F80025C1F81867C1F8085508260625C1F8202782B0C3F82475C3F824
:200680006C25C3F81465C3F80C55026002680192019804210122C3F80015226002B0F0BC89
:2006A000704700BF002000401C21004000E0D7010820004000B5084B0849094A0020186083
:2006C00083B01B680193019BD1F818051368C0B2984703B05DF804FB0821004000200040B2
:2006E000C80200204FF0A0434FF4F0310022C3F80815C3F80C25704700B50D4B93E807005E
:2007000085B001AB83E8070018460A4901F020F958B9094801F056F908B100F0CFFC074B63
:2007200001221A7005B05DF804FB00F0C7FCF0E7844F0000E5060000C30F0020C20F0020D8
:20074000024B1B7803B9704701F02EB9C20F0020034B1B7803B97047024B187801F058B94A
:20076000C20F0020C30F0020EFF3108072B6704780F31088704700BF00F01F030121C0F3DD
:200780004710994002F086BA08B500F053FE00B108BDBDE8084000F0FFBD00BF30B583B013
:2007A0001446022301F01F0100228DF8063014F00C0341EA4015ADF8042008D0042B24D075
:2007C000082B2CD00C2B04BF03238DF8043014F0030306D0022B14D0012B04BF03238DF886
:2007E000053001A9104A284600F02EFE14F0800402D074B903B030BD284600F045FF03B0BA
:2008000030BD01238DF80530EBE701238DF80430DDE72846012100F0BBFE03B030BD02239C
:200820008DF80430D3E700BF7907000001F01F0141EA40101F28CABF054B4FF0A04300F048
:200840001F00D3F8101521FA00F000F00100704700030050024B0022C3F8FC2F0120704756
:200860000010004089B1182800F28280DFE800F01113808072697B644D47428080803E3A57
:200880003632802E2A26221F0F00022070477D230B6000207047374B374AD3F80835A2FB3F
:2008A00003239B080A33DBB20B600020704700200860704710230B60002070470A230B6017
:2008C0000020704720230B600020704703230B600020704708230B6000207047D8230B6081
:2008E000002070471A230B60002070470B230B6000207047214B1B780B6000207047204B86
:2009000093F900300B60002070471E4B1E4801221A6003681C4A002BFBD00020106082B0E4
:200920001268144B0192019AD3F8483503F07F035B420B6002B07047144B5B790B600020C4
:200940007047124BDB7800200860002BA1D001230B6070470D4B1B7800200860002B98D0C0
:2009600004230B607047094B5B780B60002070470120704700100040CDCCCCCCC50F002078
:20098000C40F0020141000401C110040C00100200120704770B582B0FFF7E6FEBFF35F8F09
:2009A000194B1B78FBB9194903F0FF020A600968174B019101991A601A681649164B00927F
:2009C0004FF0FF3502224FF44054009EC1F80853C3F88021C1F804431A60BFF35F8FFFF78B
:2009E000C7FE02B070BD0C4B0A4902224FF0FF34C1F80843C3F88021C3F88020BFF35F8FB8
:200A0000FFF7B6FE02B070BDC001002030110040341100400010004000E100E0144BD3F82B
:200A2000FC0F50B1D3F85035DBB2032B06D00020704792F8800080F0010070470D4B1B78D5
:200A400003F0FF0073B10C4B1B78053B7A2BEED80A4B1B68002BEAD1094B1868B0FA80F03F
:200A600040097047044A1378053B7A2BE1D9704700100040C0010020600300203011004012
:200A800034110040074A1378053B7A2B01D900207047054B1B6813B992F8800070470120DE
:200AA000704700BF60030020301100400C2801D001207047042A01D0022070470029FBD013
:200AC000024B1B680B600020704700BFCC02002070B51B4CD4F85055EDB2032D82B028D061
:200AE000184B194AC4F8042518481949C3F810054FF000620126C3F81415C3F80465C3F82E
:200B00000425FFF747FFD4F8003243F01003C4F80032D4F80032022D43F40023C4F80032C9
:200B200009D00C4B0C4A002119601B680193019B166002B070BD094B1E6002B070BD00BF1D
:200B40000010004000F0014060030020381100404C800040581100400410004008100040A7
:200B600070B52F4E2F49304A304B314D0024346084B036680096009E0C6009680191019921
:200B8000146012680292029A1C602A781B680393531F7A2B039909D981222146284604F0FF
:200BA0008DF9FFF795FF204604B070BD941E2246691C04F09AF92B195B783F2B2DD9FF230F
:200BC0001C4E1D4A3370D2F848351C4A03F07F035B42DBB259B289B20420137002F0A8FAD4
:200BE0003178032002F0A4FA154B2A7815491A74D1F84C055860D1F8481599605200DA602E
:200C00005D680B4881220021023D1D6004F056F9FFF75EFF204604B070BD9B00DBB2CFE781
:200C2000381100400C110040341100403011004060030020C50F002000100040C40F00200E
:200C4000CC0200200080004010B503880446FBB140F2C732934203D1822905D0012010BD5E
:200C600000230380032010BDFFF70CFF80B1FFF76FFD02F009FA02F0C1F98021FFF770FFA3
:200C8000002805DD80B202F0B3F9044BDB68984740F2C7332380012010BD00BFE852000053
:200CA0007D2910B50C4609D801460A48A31C00F8013B224604F019F9002010BD064A07490F
:200CC000074802F077FE21467D22064802F072FE012010BDE0020020904F0000A04F0000EA
:200CE000A44F0000B44F000070B5264C2648274D0F23C4F8103583780A3B03EB8303C4F8E2
:200D000008350279C37981794079090641EA0323134384B043EA0043002640F20222C4F89A
:200D20006C363146C4F834256846C4F838550D22C4F83C6504F0C2F89DF802209DF80130D7
:200D40009DF804009DF80710120442EA032242F0C06343F0080343EA805343EA4173C4F8B7
:200D600014359DF80A309DF809201B0443EA022343F07F0340F20122C4F81835C4F85026E7
:200D800004B070BD00100040C00100202110010008B5064BD3F8FC2F22B90122C3F8FC2F27
:200DA000FFF7A2FFFFF794FE012008BD0010004030B585B0FFF7ECFF104A11491148124C78
:200DC0000023136015680395039D0B600D680295029D03600368019301230198236001E02F
:200DE0000B6813B91368002BFAD0044A044B10681B68B0FA80F0400905B030BD481100400E
:200E0000441100404C1100402C10004038B5072851D8DFE800F0191F5050323D44042B4B23
:200E20002B48C9B25971D0F8FC2F5AB11A79DD7999795C79090641EA0523134343EA044300
:200E4000C0F86C36002038BD01293BD0002934D0022038BDA1F10B030F2BF9D81B4A1C4B33
:200E6000C8B29070D3F8FC2F002AEBD00A3901EB8101C3F80815002038BD31F00704E7D19B
:200E8000124BC1F380011970FFF784FD204638BD31F00100DCD10D4BC9B2D97038BD0B4A30
:200EA0000B4BC9B25170D3F8FC2F002ACAD0C3F80C15002038BD012038BD054BC3F8FC1FB9
:200EC000084638BDFFF764FF002038BDC00100200010004010B57D2884B040D82A4CFFF70E
:200EE00057FFE378002B47D163782849284ADBB20120C1F80C351060D1F85035234ADBB2E0
:200F0000022BF9D12349244BC2F8043500230B600868019001980B66086E029002988B64E2
:200F20008B6C0393039BD2F80032012143F48023C2F800321160FFF759FB6FF00204241A44
:200F4000FFF754FBE042FBD4104AD2F85035DBB20B2BFAD0FFF7BCFD002004B010BD04468B
:200F60000E4A0F490F4802F025FD21460E4802F021FD012004B010BDFFF71AFF0028B3D12C
:200F8000022004B010BD00BFC0010020001000400C1000400C110040E0020020904F000024
:200FA000A04F0000A44F0000D04F000010B50C46FFF776FE2046BDE81040FFF78BBF00BF55
:200FC00010B51B491B481C4A1C4C00230B6003704B6023708B6082B0CB600B7413601368C3
:200FE00000934FF0804301210098196013681249002BFBD000240C600B6801932146104807
:20100000019B01F0E5F9214681220E4803F056FF0D4B0122C3F8FC2FFFF766FE0B4A137822
:20102000DBB21370FFF7B6FC204602B010BD00BFCC020020C50F002000010040C40F00203E
:20104000C80100206003002000100040C001002000B5154B1B7883B03BB903F0FF02134BD2
:20106000196891B9124B1A6812B903B05DF804FB19601B68019381220E48019B03F01EFFBF
:20108000FFF726FD03B05DF804FB1A601A68094B009209480099012283F8802001F054FAE7
:2010A00003B05DF804FB00BFC0010020301100403411004060030020C801002000B585B02D
:2010C00000230390194601AA44F201000193029300F004F805B05DF804FB00BF72B6094BC0
:2010E0001B68DB0700D500BEBFF34F8F0649074BCA6802F4E0621343CB60BFF34F8F00BF8D
:20110000FDE700BFF0ED00E000ED00E00400FA0572B6024A1368013313607047E40300204B
:20112000034A1368013B136003B962B6704700BFE4030020054A13790BB1852070470121D2
:201140001060537118461171704700BFE8030020074B1A68D20704D4C021012283F80013E3
:201160001A604FF080430122C3F81825704700BF00E100E010B4094B094A0021196083B069
:201180001B680193019C4FF0804102200123C1F80403136003B05DF8044B704704010040CF
:2011A0000800004010B5144B1A6882B062B10021124A19601B68507900934FF08041012303
:2011C000009CC1F8083390B10D4B1A686AB100221A601B6801934FF080420221074B019887
:2011E000C2F808131B680120984702B010BD116853718847E8E700BF00010040E803002032
:201200000401004070B443791D4C1E4E03EB430546F82320655D15B1082070BC704705790C
:201220008B786AB2002A22DB02F1604202F561425B01DBB282F800330379134E5AB2012594
:20124000520903F01F0305FA03F346F8223003680A88C3F8082543790879C97803EB430302
:20126000E218E55450709170002070BC7047074A05F00F055B012A44DBB21376DCE700BFBB
:20128000F4030020F003002000E100E0FCEC00E00368044A01211960437903EB4303022134
:2012A000D1547047F403002010B403680022C3F8002183B0D3F80031026801930123019C20
:2012C000C2F8443311B10268C2F8043303B05DF8044B70472DE9F043002585B02B4E2C4F1B
:2012E000DFF8B090A8464FF4803406E00135032D4FEA440406F104061AD0D7F804332342CF
:20130000F4D03368002BF1D0C7F84843C7F80843C6F8008033680393E8B2D9F80030039A87
:2013200001359847032D4FEA440406F10406E4D1174BD3F80423D10702D5D3F80021C2B9C7
:20134000134BD3F80423920702D5D3F8042112B905B0BDE8F0830022C3F804210D4AD3F821
:201360000431019305201368019A984705B0BDE8F0830022C3F80021064AD3F800310293DE
:2013800004201368029A9847DAE700BF40B1004000B00040F003002070B5204C94F86A30C8
:2013A00082B013B1082002B070BD04F12F0304F15F01FF2203F8012F8B42FBD1184A4FF02E
:2013C000FF302060A2F159042146002307E0072B41F8040F02F1010288BF02F8010C013307
:2013E000DBB20C2BF3D1062200210E4803F066FD0D4A0E4B0E490020C026402582F806631B
:20140000186015601B680193019D4FF000420123C1F8042384F86A3002B070BDF803002095
:20142000510400205C04002000E100E07C61004000600040034B93F86A00003018BF0120CE
:20144000704700BFF8030020F0B54E4E351895F93030002B01DB0820F0BD91F802C0CCF399
:20146000400CBCF1000F13D0336801337ED04FF0080E00277B1C06EB870404E054F8045F42
:2014800001350CD0013373451F46F7D30420F0BD336A01336FD04FF00C0E0827EAE733189A
:2014A000FCB246F8272083F83040BCF1000F02D1374487F858008B785A071CD4DD0746D5DA
:2014C0001F2887BF304B00F01F0202464FF0A04303EB8203D3F8002722F00202C3F800272C
:2014E0002A4FC50800F0070E7A5D012303FA0EF313437B558B78C3F340035BB962B2083A1C
:201500001644097896F8602042EA811286F860201846F0BD63B29B0003F1804303F5C043B8
:201520000A78D3F8101521F44F3121F44071C3F810151204000202F44031D3F8104500F46B
:201540007C520A432243C3F810250020F0BD1F284A7887BF0C4D00F01F0303464FF0A04527
:2015600003F5E073920045F82320B9E70024326085F830409FE708231F46326285F8303044
:201580001C4695E7F8030020000300505C040020F0B43A4C251882B095F8302053B2072BD2
:2015A00020DD234493F858309B09032B45D0012B14BF4FF440324FF400321F284DD900F047
:2015C0001F002F4B03EB8000D0F8003723F44033C0F80037D0F800371A43C0F8002702B09F
:2015E000F0BC7047072AFAD8980000F1804003F1400200F5C040920092B2D0F8106502F10B
:20160000804202F5C04246F001060027C0F81065176012680192019A0029E0D095F93020A8
:2016200054F82220002ADAD00122164902FA03F3C1F8043302B0F0BC70471F2810D9104B44
:20164000D3F8103500F01F00C34013F0010F0CBF4FF400324FF44032B3E74FF0A043B1E70C
:201660004FF0A0421346D2F81025C24012F0010F0CBF4FF400324FF44032A3E7F803002043
:201680000003005000600040184B034493F8302053B2072B13DD1F288ABF154B4FF0A04399
:2016A00000F01F0003EB8000D0F8003723F44033C0F80037D0F80037C0F800377047072A5F
:2016C00013D810B49A0002F1804202F5C042094CD2F81005012120F0010001FA03F3C2F801
:2016E0001005C4F808335DF8044B7047F803002000030050006000402DE9F04F89B00022C5
:201700001646029203921746744B754D754C012203E0A3424FEA420213D0184653F8041B92
:201720000129F6D1D5F804131142F2D043F8047C01680091A34246EA020600994FEA4202D7
:20174000EBD1694B1A68012A00F0B38016F0FF0F1AD0664F01250024A30003F180432E4282
:2017600003F5C0434FEA45050BD0D3F8100557F82420D3F81015C0F30520C1F3014102B12C
:2017800090470134082CE7D1002E02DB09B0BDE8F08F0DF1100A00224FF0FF33DFF84C811A
:2017A000CAF80420049206930793514C0027251D012614F8013FFF2B33D0DBB223F0C00074
:2017C00008AA4FEAD00C02EB0C0E03F007021EF8081C06FA02F2114223D008EB000999092D
:2017E00099F9309058F82990B9F1000F3BD003293BD01F288ABF03F01F0C8446DFF8F4B0A0
:201800001EF818EC98BF4FF0A04B0CF5E07C1EEA020F5BF82CC0CCF3014C1AD1BCF1030FC2
:201820002AD0A542C5D1002FB0D04FF0A0430299D3F810352F4A9942D2F8102502D10399F3
:201840009142A3D0049805990293039206900791ABE7BCF1020FE4D103293BD0B9F1000FBB
:20186000DFD0C847DDE70329DBD11AF80CB04BEA020B0AF80CB0BCE70329EFD14FF4003E30
:201880001F288BBF1B4A4FF0A04203F01F03034602EB83030137D3F8002722F44032C3F8F3
:2018A0000027D3F800274EEA0202FFB2C3F80027D4E700221A601B6801934FF0A042019B15
:2018C000D2F810250B4B0292D3F81035039346F000463BE74FF4403ED2E700BF0061004001
:2018E00000600040206100407C610040F8030020570400200003005000B5084B0849094AD5
:201900000020186083B01B680193019BD1F808051368C0B2984703B05DF804FB00D100408F
:2019200000D000406404002010B5074C236882B03BB1064B1B6898470023236023680193D6
:20194000019B02B010BD00BF000101406804002070B5114B114A1C7811600CB1082070BDEC
:201960000F4E027801211970C6F80C25416805464FF47A720023C803490C03F045F8C6F8A2
:2019800004052B7A074A5B01DBB24FF4803182F810331160204670BDC70F00206804002028
:2019A0000000014000E100E0044B054901220220C3F804231A600870704700BF00000140B8
:2019C000C70F002010B504460020FFF7A1FB0E4A1378072B05D904240020FFF7A1FB20461D
:2019E00010BD591C094823701170D0F80825012101FA03F31343C0F8083500240020FFF7B3
:201A00008FFB204610BD00BFC60F00200000014000F5C070024B034A43F82020704700BF64
:201A2000000001403546526E10B44FF080414FF080520020C1F80C015E4BC1F81001C1F843
:201A40003805D2F80414C3F82015D2F80814C3F82415D2F80C14C3F82815D2F81014C3F812
:201A60002C15D2F81414C3F83015D2F81814C3F83415D2F81C14C3F84015D2F82014C3F876
:201A80004415D2F82414C3F84815D2F82814C3F84C15D2F82C14C3F85015D2F83014C3F8BE
:201AA0005415D2F83414C3F86015D2F83814C3F86415D2F83C04C3F86805D2F840043E496A
:201AC000C3F86C050968D2F84424C3F87025082924D04FF08043D3F80024D20744BF6FF096
:201AE0000102C3F80024354AD2F8883043F47003C2F88830BFF34F8FBFF36F8F4FF0102335
:201B0000D3F80022002A23DBD3F80432002B1FDB2B4B2C4A1A605DF8044B70472A4B1B68D1
:201B2000002BD6D129492A4B2A4C0C602A482B4A2B4CFB21C3F818150368116823F00F02A0
:201B400001F00F0313434FF4007203602260C0E7244B0122C3F80425D3F80024002AFBD091
:201B60004FF0102312221F49C3F80022D1F80034002BFBD04FF0102312221A49C3F804229D
:201B8000D1F80024174B002AFAD00022C3F80425D3F80024002AFBD0BFF34F8F0749124BDB
:201BA000CA6802F4E0621343CB60BFF34F8F00BFFDE700BF00C000403001001000ED00E03A
:201BC000D80100200090D003340100108C56004000F0004048810300E40E004058020010AA
:201BE0004096024000E001400400FA0510B568B101280AD10C4C2369A07033B10CCB0120F7
:201C0000226198472369002BF8D110BD064CA36801226270002BF8D00CCB0020A2609847F8
:201C2000A368002BF8D110BD6C04002010B50B4C237882B013B1852002B010BD0848636064
:201C4000A3602361E360FFF775FA0190FFF780FA01980123237002B010BD00BF6C04002036
:201C6000ED1B000038B5154DAB78044673B110B14368012098470020FFF74AFAEB6801332F
:201C8000EB600020BDE83840FFF74ABA03F0FF00FFF73EFA64B12A6942B1944208D0134600
:201CA00001E09C4204D01B68002BFAD122602C61EB68002BE2D1FFF75DFADFE76C04002035
:201CC0000649074A074B9B1A03DD043BC858D050FBDCFFF7A9FEFEF7E5FA0000A0530000C3
:201CE00000000020A8020020FEE7FEE7FEE7FEE7FEE7FEE7FEE7FEE7FEE7FEE710B54F4CA8
:201D0000FEF746FBFEF7E8FB00F02AFC00F084FB00214B4800F05CFB00F00EF9FEF7ECFC61
:201D200000F08AF900F032FCFEF73AFB01F02AFA01F0E4F800F0A6FA2368022B11DCFEF7DC
:201D40005DFB404800F0A2F8FEF7FAFC00F07EFB0446FEF7FDFC14F0FF0FF7D1FEF754FB6F
:201D6000F4E7394A39493A4801F024FE394801F021FE2368022BE2DD334A3449344801F07F
:201D800019FE354B3548196801F014FE2368022BD5DD2D4A2D492E4801F00CFE304B3148EF
:201DA000196801F007FE2368022BC8DD264A2749274801F0FFFD2C4B2C48196801F0FAFDBF
:201DC0002368022BBBDD204A2049214801F0F2FD4AF6CD31264801F0EDFD2368022BAEDDCD
:201DE000194A1A491A4801F0E5FD1A21214801F0E1FD2368022BA2DD134A1449144801F037
:201E0000D9FD1D4B1D48198801F0D4FD2368022B95DD0D4A0D490E4801F0CCFD184801F084
:201E2000C9FD2368022B8ADD164800F001FA2368022B84DD144801F0BDFD80E7FC010020D0
:201E4000EC010020745300003C50000044500000A44F00004C500000145300007C500000CC
:201E6000045300008C500000E852000098500000A4500000C0500000BC0F0020E0500000EE
:201E8000F0500000D80F00200C52000010B50446006830B1002100F09BFA54F8040F002818
:201EA000F8D110BDF0B5038883B005465BB14A2B04D188291BD0012003B0F0BD00230380C5
:201EC000032003B0F0BD194800F024FC044630B1A168201D00F068F92468002CF8D1144B6C
:201EE00001221A704A2301202B8003B0F0BD0F48019200F00FFC04460028F3D0019A031DC7
:201F00009A4205D02468231D002CEBD09A42F9D121460648074E00F02FFCA369626937681C
:201F200032600BB1E06998473760DBE780040020C80F00208C04002010B5064B06480024FF
:201F40001C7000F0E3FB21460448BDE8104000F03FBA00BFC80F002080040020DC0100203F
:201F600070B50E4C049E257882610446C361466135B9A1600A482146BDE8704000F0CCBB37
:201F8000084D094B2E682B60043000F00DF92E6021460348BDE8704000F0BEBBC80F002058
:201FA000800400208C040020DC01002010B5044C82B024680094FFF7D3FF02B010BD00BF63
:201FC0008C04002010B50A4B1B7804463BB9C360036121460748BDE8104000F0CDBB043088
:201FE00000F004F921460348BDE8104000F0C4BBC80F00208004002038B50D4B1D7875B93B
:2020000004460C4800F086FB38B1844202D10DE0844209D000680028FAD1012038BD0430FE
:20202000BDE8384000F0D4B8002038BD284638BDC80F002080040020704700BF10B50E4C5F
:202040002368B3B1FEF77EFA226892E80A0092680B44191A4AB114685368926823441B1AD2
:20206000994228BF1946002AF5D1044B0144196010BD024A136010BD840400208804002095
:202080002DE9F041038805467BB1592B08D1872912D0822920D059232B800120BDE8F0810F
:2020A000002303800320BDE8F081254A136059232B800120BDE8F081214F39680029EAD00D
:2020C000CB689A4203D024E0CB689A4220D189680029F9D13960DEE7194F4FF000083C6885
:2020E000002CD8D0002604E0A3682646002BD2D01C46204600F0FCFA0028F5D02246882112
:20210000E06800F001FA78B10E4800F01DFAEBE739608B68002BBED0D868824207BF9B6822
:202120008B6019469B68F5E7E060A3682EB1B360C4F80880FFF782FFD1E73B60F8E700BF8D
:2021400084040020EC01002010B50446104800F0FBF91049E3680A684BB142B194420FD0C5
:20216000134601E09C420BD09B68002BFAD10A4BA2601B68E3600C60BDE81040FFF75EBFE2
:20218000054B1B68E360BDE81040FFF757BF00BFEC010020840400208C040020014800F0CB
:2021A000D3B900BFEC01002010B5044600F08AFA2046BDE81040FFF7C7BF00BF10B504469F
:2021C00000F088FA2046BDE81040FFF7BDBF00BFC068B0FA80F04009704700BF024B186833
:2021E000003018BF012070478404002010B50F4B1A688242044613D072B19368984208BF07
:20220000134605D043B19A68944201D01346F9E7A2689A60FFF712FF0023A360E36010BD79
:2022200082681A60FFF70AFFF6E700BF84040020D0B170B5054601260024C4B1E30709D57E
:2022400029780D4801F0B6FB082E0CD0013601350134F2E7094801F0ADFB2978064801F08F
:20226000A9FB082EF2D170BD054801F0A3BB2978014801F09FFBE9E73851000034510000A5
:2022800024510000034A04499079D37903EB00230B807047D80F0020BC0F00202DE9F84344
:2022A000DFF8A480274DD8F800702E68874247D077B33B4601E0002B3BD01B689842FAD10F
:2022C00033B3837B8946044623B3002383736FB1BC42384622464FF0870104D0BB7BDB075B
:2022E00001D500F033F83F68002FF1D1A3683BB14C4505D02C600022832104F10C009847C6
:20230000D8F80000844208D12368C8F800302E60BDE8F88338468442F6D00028F7D00368C1
:202320009C4208D0002BF2D01A68944204D01346F8E7BDE8F883034622681A602E60E7E7CD
:202340003B46BDE78C0400209004002070B586687EB104460A4802230460A37304F10C0076
:202360000D46B0470238012804D9832D02D00123A37370BD21462046BDE87040FFF78EBF85
:202380008C04002070B50C4A0C4B146800251D7084B1012601E0246864B1E37B002BFAD05C
:2023A000A673E573204600228221FFF7CFFF2468002CF2D170BD00BF90040020CB0F0020A8
:2023C000024B1878421C1A70704700BFCC0F002070B50F4D2C68844206D034B1234600E0E8
:2023E0001BB11B689842FBD170BD0028FCD00346084E04600A460120002134689873998171
:20240000184681212B60FFF7A1FF346070BD00BF900400208C04002070B407480749084AA2
:20242000084D094C00238A2603700B6013602E70237070BC704700BFCA0F0020900400204E
:202440008C040020CC0F0020C90F00202DE9F041234D2B780BB1FFF795FF224E3378BBB1B2
:202460002148224F027802EB420189007C18013202F01F02013B0270A0687F5CD4F8048094
:20248000DBB2337098B1812F06D0827BD20705D428781844BDE8F08101238373424639465B
:2024A000FFF754FF337828781844BDE8F081104A146834B9ECE7A37BD9070AD42468002CEC
:2024C000F0D02B78002BF6D0FFF75CFFA37BD907F4D5424639462046FFF738FFEEE700BF62
:2024E000CB0F0020CA0F0020C90F00209404002090040020024A034B10781B7818447047BD
:20250000CA0F0020CB0F0020F0B40C4D2C78202C11D00B4B0B4F1B78234403F01F0303EB4D
:2025200043039B00FE18F9540134B06072602C700020F0BC70470120F0BC7047CA0F0020A4
:20254000C90F00209404002038B1837B013B012B03D8024A01231370C3737047CB0F0020C7
:20256000FEF70CB810B5084C206858B100224368816822609847236823B11868BDE810400D
:20258000FEF72EB810BD00BF1406002082B002AA074B42F8043D9A4288BFCD2103D903F807
:2025A000011B9342FBD10348002102B0FFF710BF201000200002002038B5124C124DFEF76A
:2025C000C7F82378CD2B08D0AC4202D30EE0AC4213D014F8013FCD2BF9D1AC4202D30CE092
:2025E000AC420AD014F8013FCD2BF9D0FEF7B0F8AC42054803D2001B38BDFEF7A9F84FF074
:20260000FF3038BD201000200000042070B5038804465BB1912B05D12148FFF7D9FD70B92C
:20262000012070BD00230380032070BD4FF4A0611B48FFF7B9FD91232380012070BDFFF768
:20264000BBFF184D184B061EA3EB050518DB002D16DBAE420DDD154B1B68002B09DD144AFF
:202660001449154801F0A6F92A463146134801F0A1F90B48FFF7A2FD91232380012070BDB6
:202680000A4B1B68002BF4DD094A0A490A4801F091F92A4631460A4801F08CF9E9E700BFB5
:2026A000180600202010002000000420FC010020DC510000A04F0000A44F000010520000DA
:2026C000E451000010B541600446FDF73BFF206010BD00BF10B50446FDF734FF94E8060023
:2026E000C1F101031844904284BF5218226010BD10B50446FDF726FF23686268C3F10103C5
:202700001844904294BF0020012010BD00230360704700BF0068704710B404685CB1A142EF
:2027200025D023680BB906E01346994210D01A681C46002AF8D100230B6002680AB911E0D8
:202740001A461368002BFBD111605DF8044B704764B10A68226000221A6000230B6002683E
:20276000002AEED101605DF8044B70470C46236803602346EFE700BF10B404685CB18C426B
:2027800014D023680BB906E01346994206D01A681C46002AF8D15DF8044B704734B11A687D
:2027A000226000221A605DF8044B70470B6803600B46F6E703682BB100201B680130002B56
:2027C000FBD170471846704700B10068704700BF10B5044642884068002102F06FFB238829
:2027E0006288A06802FB03F20021BDE8104002F065BB00BF30B44588BDB141680B7863B1AF
:202800004A1C002302E00C78013234B10133AB421146F8D1002030BC704701220A70028886
:20282000806830BC03FB020070472846F3E700BF30B44488826854B18A420CD0058800230F
:2028400001E0914208D00133A3422A44F9D14FF0FF3030BC704700234268D15C0029F6D0A1
:202860000020D05430BC704783688B4208D84288008800FB023081422CBF002001207047B4
:202880000020704708B502F073FA80B208BD00BF104B0121002219601946C3F80021D1F873
:2028A00000210C4B002AFAD0D3F808050022C0B2C3F80021D3F800210649002AFAD0D1F86C
:2028C00008351B0203F47F43012218434A6002F027BA00BF00D000400023013A01600271E9
:2028E00043718371704700BF0346807959791A79091A114208D010B4411C1C680A40205C5A
:202900009A715DF8044B70474FF0FF30704700BF2DE9F0410488772C064630D07E2C27D00A
:2029200024B1002303800320BDE8F081304F314DFFF746FD304B3A6818702C60002A55D02D
:2029400023462E4C984604F8038000219368802098472B6801332B6057F82320002AF2D1CB
:20296000DBB2274A1370772333800120BDE8F081214B1B788B421CD00120BDE8F081DFF88C
:2029800080801C4D98F800201E4F00233B602B60002AE8D0194CE256002A18DB2B6898F8A9
:2029A0000020013393422B60F5DB3B68002BECD1D9E7104D114CDFF84880124F2B683A6859
:2029C000E15C013201F07F01E1543A60E7E7084A094952F8232009780020FFF795FD0028F7
:2029E000ECD17E2333800120BDE8F0811346B8E7B80100202806002018100020D40F002025
:202A0000CD0F00202C06002010B590F84C10094A013180F84C100446034680212030FFF7EC
:202A2000C5FA054B224619780020BDE81040FFF76BBD00BF092A00001A100020F8B50388E7
:202A4000044653B1B3F5867F03D182290AD00120F8BD002303800320F8BD4FF486732380EF
:202A60000120F8BDFDF780FEBFF35F8F1549164B0E6800220A601F781A70FFB2BFF35F8F3B
:202A8000124DFDF775FE286820B9E6E755F8040F0028E2D090F8463026FA03F3DA07F5D541
:202AA00090F8453047FA03F3DB07EFD5FFF7A4FA0028EBD02B68064A18460221FFF776FAFB
:202AC000E4E700BF30060020CE0F0020B4000020312B000010B4094A094C13681943116035
:202AE0002278012303FA00F040EA0203DBB2237004485DF8044BFFF727BD00BF30060020FD
:202B0000CE0F00202002002010B5044690F8461090F84500FDF78AFE10B994F8440010BDDA
:202B2000012806BF94F8440080F00100002010BD70B50446FFF760FA00B970BD04F12005BA
:202B40002846FFF759FA06462046FFF7DDFF01280ED00028F1D1002EEFD12846FFF732FACB
:202B60000D4B224630461978BDE87040FFF7CCBC002EE2D000262846234684F84C60074A65
:202B80007E21FFF713FA064B304622461978BDE87040FFF7B9BC00BF19100020092A0000D8
:202BA0001B10002070B5FFF70BFC2F4B2F4C1870FFF706FC2E4B2F4E1870FFF701FC2E494B
:202BC00022682E4B08700025FF2131727360F56022B940E054F8042F002A3CD092F84630BA
:202BE00092F845002649926C03F01F0343EA40131F2BCCBF03F01F034FF0A04103F5E073AF
:202C000042F08C0241F82350236893F8461093F84500FDF7C3FD226892F8463092F84500FF
:202C200003F01F0343EA40100121FEF7B1FC2268337A92F84510994201D0FF2BCAD192F82D
:202C40004600F368317201228240134354F8042FF360002AC2D10B480021FFF7B9FB0548FB
:202C6000BDE8704000F010B81B100020B400002019100020340600201A100020D52A00003C
:202C8000000300502002002001460148FFF744BD4406002070B505460B480E46FFF73AFD6A
:202CA00088B1044601E024686CB1237AAB42FAD1E1683140F7D063682846002BF3D098472B
:202CC0002468002CF1D170BD4406002008B50348FFF71CFDBDE80840FDF756BD440600206E
:202CE0001B4A30B40023012440FA03F1C90714D51178C9B112F8021C12F8015C01F01F01B9
:202D000041EA45111F29C6BF01F01F01114D4FF0A04504FA01F1C5F80C150133042B02F1AE
:202D20000302E1D130BC704712F8021C12F8015C01F01F0141EA45111F29C6BF01F01F013A
:202D4000044D4FF0A04504FA01F1C5F80815E4E71E4F0000000300501B4A30B40023012418
:202D600040FA03F1C90714D51178C9B112F8021C12F8015C01F01F0141EA45111F29C6BF7B
:202D800001F01F01114D4FF0A04504FA01F1C5F808150133042B02F10302E1D130BC704726
:202DA00012F8021C12F8015C01F01F0141EA45111F29C6BF01F01F01044D4FF0A04504FAA1
:202DC00001F1C5F80C15E4E71E4F0000000300500E4A30B4032502F10C04137850780C4989
:202DE00003F01F0343EA40131F2BCCBF03F01F034FF0A04103F5E0730332944241F8235032
:202E0000EBD10F2030BCFFF7A7BF00BF1C4F000000030050F8B50488672C05460BD0792C6B
:202E200004D0DCB1002303800320F8BD85291CD11E4C002323601D4C264606E00A2816D035
:202E40000D2814D023687E2B2ADD1948FFF74CFD431CF3D167232B800120F8BDFFF7B0FAB0
:202E6000144A124B10701C60E5E70120F8BD0F4C114F23680F495A1C002609782260304646
:202E80003A46FE54FFF740FB0C4B324618688521FFF73AFB0028CCD179232B800120F8BD2D
:202EA00005495A1CC8543260CFE700BF50070020480700201C100020C80600208C0400205B
:202EC00008B5054905488022FFF706FD00210448BDE80840FFF77CBA48060020480700209C
:202EE00030020020082202F000B800BF08B5082201F0ECFFB0FA80F0400908BD054B10B5ED
:202F00001B689847044B5B689847044BBDE810405B68184704500000E85200000453000013
:202F2000F8B50E4D0E4C2A7823881344802B01DD0020F8BD0B4F3946064601F0D6FF0A4BED
:202F4000287819782288014457FA81F1304401F0CCFF287823881844F8BD00BFCF0F002045
:202F6000BE0F002054070020C00F0020F0B4114B114F124A3E781B781288334452FA83F322
:202F80009BB21A18802A12DC013B9BB21AB2002A08DB0B4C2518013BA15CA9549BB21AB2D5
:202FA000511CF8D130443870F0BC012070470020F0BC7047C00F0020CF0F0020BE0F0020DE
:202FC00054070020084A138883420BDB10B4074C80B221881B1A13800844208001205DF8C2
:202FE000044B704700207047BE0F0020C00F0020014B1880704700BFBE0F0020044B054A33
:203000001B7812780448134450FA83F0704700BFC00F0020CF0F0020540700200048704756
:2030200054070020014B1888704700BFBE0F00200549064B064A1B7808781288184452FA82
:2030400080F080B2704700BFCF0F0020C00F0020BE0F002038B5094D094C0A481A22002137
:2030600001F02CFF29462046FFF73CFF294604F10800BDE83840FFF735BF00BF6452000046
:20308000E00F0020F00F002004480549054A002303800B801370FFF7DDBF00BFC00F002025
:2030A000BE0F0020CF0F0020F8B5802928BF8021094A0A4D0A4F0C460023064613703B8045
:2030C0002B80FFF7C7FF31462246064801F00DFF2C802046F8BD00BFCF0F0020BE0F0020EE
:2030E000C00F00205407002010B51A220C46054901F0FBFE204610220349BDE8104001F011
:20310000F4BE00BFF00F0020E00F002010B51A220C460146044801F0E8FE2146102203486F
:20312000BDE8104001F0E1BEF00F0020E00F0020024B23F810100120704700BFF00F00209E
:20314000014B33F810007047F00F002008B5044B0D3803EBC000FFF7C5FE012008BD00BFB5
:20316000E00F0020024B0D3803EBC000704700BFE00F002001490248FFF7B8BE64520000C5
:20318000E80F002008B50448FFF722FB0348BDE80840FFF71DBB00BF4C0200204002002067
:2031A00038B50F48FFF726FB044688B10D48FFF721FB0546206060B1FFF7B2FE05F19C01B5
:2031C000A5F8800005F18200FFF78EFF204638BD38BD21460248FFF72BFB284638BD00BF98
:2031E000400200204C020020006800F19C018230FFF77ABF10B5014604460748FFF734FB5E
:2032000000B910BD21680548FFF712FB21460248BDE81040FFF70CBB400200204C0200201C
:2032200010B5014604460948FFF71EFB00B910BD2468B4F880102046FFF736FF04F19C0167
:2032400004F18200BDE81040FFF760BF40020020F8B5FDF777F9104F06463C4600250D20FB
:20326000FFF780FF2146FFF741FE103420B90135102DF4D10020F8BD072007EB0515FFF7EA
:203280005FFF2B7B8342F5D1A868301AB0F5206F8CBF00200120F8BD640D0020F8B5194F2A
:2032A00000253C460D20FFF75DFF2146FFF71EFE18BB0135102D04F11004F3D112480F25CE
:2032C000013D07EB051600E0013D3146102201F00CFE3046103E002DF6D10720FFF730FFDD
:2032E0003873FDF72FF9B8600D20FFF73BFFBDE8F84001460348FFF7F5BD002DEDD020462B
:20330000DEE700BF640D0020540E002040B130B40D460446114628461A46234630BC1847CB
:20332000704700BF014B1888704700BF98020020B8B1037A022B30B414D00378022B19D08F
:203340000379D3B9447A14F0030418BF0124C37913F0030318BF012301B10C6002B113601C
:2033600030BC7047C579447A037945B90CB9012BF2D0CBB100231C46EEE70024E7E704B9FC
:20338000C3B1032D21D1032C16D0022C18D0002BF0D1022D08D0032D15D1A4F10204B4FA1A
:2033A00084F46409D8E72346023C012C8CBF00240124D1E70123ECE7002BDBD10123ECE784
:2033C000002BF7D001230024C6E7022DDDD1002CF6D1002BE7D02346BEE700BF30B5044658
:2033E0000D46084683B00021062201F067FD637DD9075CBF01232B70237E012B23D901AA4D
:20340000694604F11000FFF793FF009B0BB10223EB70019B0BB102236B70E37D03F00303E8
:20342000022B03D0032B0CBF08230023AB70637E03F00303022B03D0032B0CBF0823002309
:203440002B7103B030BDE37D9A0706D0637E9B0703D0E28BA38B9A4202D000232375CEE74A
:2034600001232375CBE700BF02280CBF022308230B4403E013F8012DFF2A03D18B42F9D1DB
:20348000012070470020704730B583B06946FFF7A5FF9DF800309DF801509DF802409DF805
:2034A00003109DF804209DF8050002332B4423440B441344184403B030BD00BF70B444785A
:2034C00085780678C2780379E4002D0105F0100504F008042C43520106F007052C4302F07A
:2034E00020029B01224303F0400313430B7045798479467AC279037A05F00105600000F024
:20350000020045EA86149200204302F00C021B01024303F0300313434B7070BC704700BFB1
:20352000F0B583B00C4607466946FFF757FF07F110002146FFF7C2FF9DF80030012B04BF3F
:20354000BB7EA3709DF801300CBF03200220022B28D09DF8026076B1721E0644F6B2B918B3
:20356000034611F80159E5540133DBB2B342F8D101321044C0B29DF80330022B1CD09DF878
:2035800004606EB1F21D85193A44EDB2034612F80119E1540133DBB2AB42F8D13044C0B2DF
:2035A00003B0F0BDBB8B2354431CBA8BDBB2120A0230E254C0B2CCE7FB8B2354431CFA8B33
:2035C000DBB2120A0230E254C0B2D8E7F0B50278437885B002F00706C2F3C005C2F3001458
:2035E0000846C2F38011C2F3401E03F001078DF804608DF80550C3F34006C3F381058DF8A9
:2036000006408DF80810C3F301140A229B0901A98DF807E08DF809708DF80A608DF80B5049
:203620008DF80C408DF80D3001F05FFC05B0F0BD012951DD2DE9F04186B014460F4603A919
:203640000546FFF7C3FF03A90A2204F1100001F04CFC9DF81130002B3AD0AE1C03A802AA25
:2036600001A9FFF765FE9DF81380B8F1000F44D0029B002B35D0727816F8023B03EB02233E
:20368000A383B8F1020F57D0B8F1030F3CD09DF81580B8F1000F28D0019BFBB1717816F843
:2036A000023B029A03EB01239BB2E383DAB1B8F1020F4BD0B8F1030F32D0701B8742A7EB69
:2036C0000003B8BF0020A663E36306B0BDE8F081AB78A376EE1CC1E700207047A38BE383DC
:2036E000E5E7A383CDE7A383E1E71E4904F10800FFF7F8FBA4F81E80DFE71A492046FFF72A
:20370000F1FBA4F81C80C2E706F108000346621E13F8011D02F8011FB342F9D10646B6E729
:2037200008363246E31D04F10F0012F8011D03F8011F8342F9D1C0E70A492046FFF7D2FBDA
:203740007378237016F8023B6370A0E7054904F10800FFF7C7FB7378237216F8023B6372A3
:20376000ABE700BF6452000030B591B0FFF746FC0446FFF757FC6A4601462046FFF758FFA7
:20378000C8B30446FFF71EFCA8B39DF810100C20FFF7CEFC9DF813100820FFF7C9FC9DF828
:2037A00017308BB1BDF81C50FFF7BCFD854205D0BDF81C204FF6FF739A421CD169469DF865
:2037C0001700FFF751FED0B102A90D20FFF7BEFC9DF815303BB14FF6FF710720FFF7A8FC48
:2037E000204611B030BD9DF81A100720FFF7A0FC204611B030BD4FF0FF3011B030BD69465E
:203800000E20FFF7A3FCDFE790B38AB3F8B506460C2014460D46B04700232074A37415B340
:20382000E37463750920B047002701232376A07567740720B047A076FFF774FDE0830A203D
:20384000B047012816BF032367766376FFF76AFDA0830B20B047012813D055B10223E37566
:2038600001232375F8BD0820B0476575E074D9E770470323E375637E022BF1D0002323750B
:20388000F8BD0023E375F6E730B591B00546FFF749FD4FF6FF73984258D040226846002184
:2038A00001F00CFB2C4B1A7822B35DBBFFF762FC6A46C1B22948FFF7A7FFFFF75BFC002821
:2038C0003CD0FF238DF800308DF801300D20FFF749FC014602A8FFF705FBFFF78FFB0E90E2
:2038E000FFF7A0FB0F906846FFF7CEFD0446CDB911B030BD01221A70FEF7C4FF184B18705B
:20390000002DD3D00720FFF71BFC0028CED1144C2178F1B189B20720FFF70AFC2378013314
:203920002370C3E7FFF722FB80B1FFF777FB01466846FFF7F5FD204611B030BD0E20FFF789
:2039400011FC01466846FFF7CDFABFE74FF0FF30CEE701212170DEE7D10F002041310000F5
:20396000D00F00200120FFF78FBF00BF0020FFF78BBF00BF074A084913681844884202D8E8
:20398000106018467047054B0C221A604FF0FF30704700BF580200200000042014100020E4
:2039A0000AB90020704708B508461146FCF778FD002008BD0FB400B583B004AA054852F8CE
:2039C000041B019200F026F803B05DF804EB04B0704700BF5C020020102970B50C4605468D
:2039E00002D80AE0102C0BD92B680949686810229847103C0028F5D070BD08460029FBD075
:203A000022462B6868680249BDE87040184700BFD05200002DE9F04F8FB08346019288463D
:203A20004FF0000998F80030002B00F0E780252B08BF45461DD0444603E0252B00F04981F6
:203A40002C466378651C002BF7D1454500F0D680C8EB050641463246DBF80030DBF804003E
:203A60009847002840F07D826378B144002B00F0C5806B7805F10108002B00F0BF8000257F
:203A8000A3F12002102A1BD8DFE802F0171A1A141A1A1A1A1A1A1A111A0E1A1A090045F0CA
:203AA000100518F8013FEBE745F00105F9E745F00605F6E745F00805F3E745F00205F0E768
:203AC000A3F13102082A00F2D880002404EB840403EB440418F8013FA3F13002092AA4F1F4
:203AE0003004F3D92E2B00F0D0804FF0FF366C2B00F0E580682B00F048817A2B00F04F811C
:203B0000782B00F28180DFE813F079007F007F007F007F007F007F007F007F007F007F00D6
:203B20007F007F007F007F007F007F007F007F007F007F007F007F007F007F007F007F0095
:203B40007F007F007F007F007F007F007F007F007F007F00EB027F007F007F007F007F0007
:203B60007F007F007F007F007F007F007F007F007F007F007F007F007F007F007F007F0055
:203B80007F007F007F007F007F007F00E8027F007F007F00E502E202DF027F007F007F009B
:203BA0007F007F007F007F007F007F007F007F007F007F007F007F007F00DC027F007F00B6
:203BC0007F007F007F007F007F007F00D9027F00D602D302D002CD02CA027F00D3027F00A4
:203BE0007F007F007F00C702C4027D007F007F00C1027F00BE027F007F00BB0248460FB034
:203C0000BDE8F08F45F4407505F4E063B3F5806F08F1010800F0DD805FD9B3F5C06F00F071
:203C2000AC81B3F5E06F00F0A181B3F5A06F7FF4F9AE019A012C13688DF8203002F104026C
:203C40008CBF04F1FF340024EB07019200F1FE8121465846FFF7C0FE002840F082810122A1
:203C6000DBF80030DBF8040008A909EB02059847002840F076812544E5E12A2B00F09B8001
:203C80002E2B4FF000047FF430AF98F80130A3F13002092A08F1010100F288808846002693
:203CA00006EB860603EB460618F8013FA3F13002092AA6F13006F3D96C2B7FF41BAF98F807
:203CC00001306C2B00F0658108F1010845F0600516E745457FF4BCAECBE6B3F5807F00F0FE
:203CE000AC80B3F5407F7FF49DAE0198AC4BAD4F016815F4804F18BF1F4603460433019356
:203D00000A460023002900F0B3810DF1330E7046110902F00F0C41EA03711E090A46334638
:203D200017F80C1000F8011D52EA0301F0D1BEEB000600F09F810336B4424FF078034FF05A
:203D4000300200F8013C00F8022C4FF023038CBFA41B0024EA0700F8033CA0F1030700F18F
:203D6000C28121465846FFF737FE002840F0F9803946DBF80030DBF8040032469847002827
:203D800040F0EF8009EB06055DE198F80130682B00F0BC8108F1010845F04005B0E698F824
:203DA000013045F0600508F10108A9E62A2B00F0B481884699E6019A146813460433002C0D
:203DC0000193B8BF45F0010598F8013008F1010888E6019A1346D2F800A004330193BAF198
:203DE000000F00F07F829AF8007037B1574617F8013F002BFBD1CAEB0707002E02DBB7422F
:203E000028BF3746BC428CBFE41B0024E90700F1098121465846FFF7DFFD002840F0A18017
:203E20005146DBF80030DBF804003A469847002840F0978007EB090505E1002EABBF25F0B0
:203E4000100501230596059315F40053049305F0E00300F0AF80402B00F0718200F26781E4
:203E6000002B00F02B82202B40F05482019991F900200431D3170191002A73F10001C0F2F3
:203E80002982CDE902230023069305F4C053B3F5805F00F0AA80B3F5C05F00F09681B3F5BD
:203EA000006F00F0B7810DF1360A0027059941F608038F4203EA050341F2080280F05881DA
:203EC0009342A1EB070600F01B8241F60802934207EB060100F05781002302931A46049B59
:203EE00083B1069B002B40F05C8105F00603022B00F01D82062B2C48029B08BF0123029339
:203F000008BF0246029B0B449C428CBFE41A002415F00103049304D1E80640F1E7812644F5
:203F20001C46029D3DB11146DBF80030DBF804002A469847A8B9102E07EB090540F28D8133
:203F4000B14603E0B9F1100F40F28981DBF800301649DBF8040010229847A9F1100900285D
:203F6000F0D04FF0FF300FB0BDE8F08F019A136804320192C3F8009054E5DBF800300C4975
:203F8000DBF80400012298470028EAD109F1010948E598F8023045F0800508F10208AFE521
:203FA000885200009C520000C052000078520000CC520000402B00F0BE8100F2C780002B41
:203FC00000F07181202B40F0F080019A1078134604330193049B069305F4C0530021B3F5C0
:203FE000805FCDE902017FF456AFDDE90223134300F0AC810DF1360307939A46DDE90223B7
:20400000D00840EA437002F00701DE083031024633460AF8011D52EA0301F1D1079BCAEB70
:20402000030743E75146DBF80030DBF804003A469847002895D12146584607EB0905FFF7F3
:20404000CBFC00288DD104EB0509EBE4DBF80030DBF80400012208A99847002881D12146D9
:20406000584609F10105FFF7B7FC0028EBD078E70DF13300302300F8013C042601385BE65A
:2040800045F4C855C0E545F41065BDE545F48065BAE545F48855B7E545F4E065B4E545F416
:2040A0008135B1E545F40075AEE545F40245ABE545F42455A8E545F4A065A5E545F4C1352D
:2040C000A2E545F4B2459FE545F4A1359CE545F4844599E545F4424596E545F4E13593E593
:2040E00045F4C06590E53946DBF80030DBF804003246984700287FF434AF2146584609EBC6
:204100000605FFF769FC00289DD02AE798F8023045F0200508F10208F2E4019998F8023042
:204120000E680A460432019208F10208DFE4602B00F0C480802B40F0ED800199073121F040
:204140000701D1E900230831019195E6602B00F0AA80802B29D1019B073323F00703D3E93B
:20416000001208330193049B0693CDE902128CE6934200F0CD8041F608020026934207EBAA
:2041800006017FF4A9AEDDE9022313433FF4A4AE744B754A15F4804F18BF1A460223029341
:2041A0009DE601230293714AACE605F4C053B3F5805F00F0CF80B3F5C05F40F0AE8000235C
:2041C000069300220023CDE90223DDE90201684B684E15F4804F18BF1E4602460B461343F2
:2041E00000F0B4800DF1360307939A4602460B46110902F00F0741EA037118090A460346D6
:20420000F15D0AF8011D52EA0301F1D1079BCAEB03074BE6DDE9026732463B46134300F02E
:2042200095800DF1360307939A46304639460A22002300F0E9FB3032304639460AF8012D19
:2042400000230A2200F0E0FB06460F4656EA0703EBD1079BCAEB030728E656B1B1464A46A0
:20426000DBF800304449DBF80400984700287FF478AE3A46029FDBF80030DBF804002F44C9
:2042800051463D46984700287FF46BAE049B3544002B3FF4D8AE21465846FFF79DFB0028BA
:2042A0003FF4D1AE5DE6019A0499069113680432019219460022CDE90212E6E501990A68D4
:2042C0000B4604330193002A4FEAE27373F10001BFF6D7AD524263EB4303CDE90223012345
:2042E0000693D2E5DFF898A0062786E5214658460592FFF771FB059A00283FF412AE30E6F9
:20430000002E08BF0126002302931A46B919E6E50126F8E700220023B3E5002306931F46C8
:2043200000220023CDE902230DF1360ABEE50123124A0293E6E5019A1346108848E6019948
:20434000B1F900200431D317019195E500270DF1360AABE50023069300220023CDE9022397
:2043600043E600BFB0520000B4520000B8520000885200009C52000078520000BC520000A3
:20438000C452000070B590F82D40012C05460EDD1F24FEF777FA2B46B0FBF4F1074A01FB93
:2043A000140105F10C00BDE87040FDF7FFBD0334012202FA04F4013CEBE700BF5144000030
:2043C0002DE9F0470D468B6892F82C908046506B144693E8C000FEF7CFF96868FEF70AFF63
:2043E000A9681748FEF724FA29461648FEF720FA606BFEF78FF978B1002384F82C3084F876
:204400002D302046FFF7BEFF4B46424639463046BDE8F047FEF77ABF04F10C00FDF7D2FD4A
:2044200021460948FEF7A8F921460848FEF700FA4B46424639463046BDE8F047FEF766BF84
:204440006402002070020020D40E00207C020020002800F095802DE9F047044682B0406B03
:20446000FEF758F9054600287AD04068FEF7D8FE61490D20FEF76AFE01210820FEF758FEFD
:2044800000F07EF9002848DBFEF7C8FDDFF86C8190F80290D8F80460FEF7C0FD0746FEF7AA
:2044A000C7FD01463846B047FEF764FED8F818600746B047002861D1002F75D1D8F81CA03E
:2044C000D04700285AD1D8F80870FEF7B1FDB84700286FD1FCF78AF86FF018073F1A03E0F1
:2044E000FCF784F8C74202D5D0470028F8D0B04710B9D047002879D0FCF778F86FF028062E
:20450000361A03E0FCF772F8C64202D5D0470028F8D0D04738BB022000E00520AB68FBB135
:2045200002282ED003281BD0012836D194F82D200132D2B2052A84F82D2094F82C2006D9CE
:204540000132D2B2002184F82C2084F82D101B7A934233D92046FFF715FF6868FEF744FE15
:2045600002B0BDE8F087D8F81030032101A89847032803D19DF806304B4525D00120CDE78D
:20458000704794F82C200132D2B2002184F82C2084F82D101B7A9342DCD822462946FFF748
:2045A0000FFF02B0BDE8F087D8F80860FEF740FDB04748B10228E1D00420AFE72246294659
:2045C0000120FFF7FDFECBE7AB68002BC8D094F82C3000200133294684F82C3084F82D0015
:2045E0002246FFF7EDFE02B0BDE8F087D8F814309847002880D08EE7D80F00200450000069
:204600002DE9F04106460E200F46FEF7ABFD4D4B1A780546002A49D04B4A1078002842D0D8
:20462000431CDBB281B207201370FEF781FD01210C20FEF77DFD4548FEF76CF8044628B970
:2046400017E02046FEF7C0F8044690B12946201DFEF74CFC0028F4D0606BFEF7ABF807285E
:204660002CDD3946304601230422BDE8F041FEF74DBE3748FEF7BEF804460028F1D0294650
:20468000201DFEF72FFC002304F13000606384F82C3084F82D302363FEF738F821462B487C
:2046A000FEF73AF8D8E701210223BCE701221A70FEF7E8F8244AC0B21070AFE72548FEF750
:2046C00099F8054630B32448FEF794F8A860E8B1FEF766FD6860A8B10620D5F80880FEF7A4
:2046E0002FFDC0B220B388F8080088E8C0002946606BFEF711F8606BFEF70CF885421BD0E3
:20470000BDE8F081A9681448FEF792F829461148FEF78EF8606BFEF74DF80028A1D121464E
:204720000A48FEF729F821460948FEF781F898E7082388F80830D8E72046BDE8F041FFF798
:2047400021BE00BFD30F0020D20F0020D40E00207C020020700200206402002008B50548F6
:20476000FEF736F80448FEF733F80448BDE80840FEF72EB870020020640200207C020020E0
:2047800010B501210C20FEF7D3FC024BBDE810405B6818476C520000014B9B68184700BFB3
:2047A0006C520000014B1B6A184700BF04500000014B5B6A184700BF0450000010B50D4B58
:2047C00082B01B6898470C4B044601A99B6A1820984701280BD0002C0198B8BF15248028BD
:2047E000D4BFC4EB0000C4F1800002B010BD002002B010BD6C52000004500000FFF700BF5D
:2048000030B583B0FEF70EFC032815D0FFF7C4FF002811DB0E20FEF7A5FC2149FEF766FB20
:2048200010B9FEF7A7FC38B10D20FEF79BFC1C49FEF75CFB044608B103B030BDFEF708FD27
:204840000546A0B10820FEF77BFC0028F4D002238DF804308DF80540FEF7E0FB114B82786E
:204860008DF80620DB68032101A89847E4E7FEF715FD0820FEF764FC70B102238DF8043050
:204880008DF80550FEF7CAFB064B82788DF80620DB68032101A89847034B9B689847CBE7BD
:2048A000D80F0020045000000453000010B5074C82B001A9A36A1820984708B102B010BDF6
:2048C000FFF74CFF236A984702B010BD04500000014B00221A607047AC0F002010B50446CF
:2048E000FEF7D2FB0D4A0E4B11881868FEF7DCFB74B121460E20FEF729FC0A490D20FEF718
:2049000025FC094B002108469B689847012010BD06490E20FEF71AFCEFE700BF1010002086
:204920000C100020D80F0020E8520000645200002DE9F0410C4B1C68A4B1FEF75FFB054633
:20494000FEF770FB06460D20FEF70CFC07460E20FEF708FC3A46034631462846A446BDE8D0
:20496000F0416047BDE8F081AC0F0020014B1860704700BFAC0F0020704700BF002070470C
:20498000704700BF0120704701207047012070470020704700207047704700BF704700BF7F
:2049A00000207047002070470120704701207047704700BF704700BF704700BF0020704760
:2049C00000207047704700BF10B50388044613B90348FFF7CBFF00232380032010BD00BFA4
:2049E000E549000010B5074C23680F2001332360FEF7B2F92068BDE8104000F00F00FEF7EF
:204A00006FB900BFB00F002053B94AB9002908BF00281CBF4FF0FF314FF0FF3000F07EB9CA
:204A2000ADF1080C6DE904CE00F006F8DDF804E0DDE9022304B070472DE9F0478C460E462C
:204A40000446089D002B50D18A4217466CD9B2FA82FEBEF1000F0BD0CEF1200420FA04F4F3
:204A600001FA0EF644EA060C02FA0EF700FA0EF44FEA1749220CBCFBF9F01FFA87F809FBF7
:204A800010C642EA064600FB08F3B34209D9F61900F1FF3280F02281B34240F21F810238B6
:204AA0003E44F61AA2B2B6FBF9F309FB136642EA064403FB08F8A04509D9E41903F1FF3299
:204AC00080F00A81A04540F20781023B3C44C8EB040443EA00400021002D62D024FA0EF4B7
:204AE00000232C606B60BDE8F0878B4207D9002D55D0002185E841000846BDE8F087B3FA3B
:204B000083F1002940F09080B34202D3824200F2F880841A66EB03060120B446002D40D070
:204B200085E81010BDE8F08712B90127B7FBF2F7B7FA87FEBEF1000F35D1F31B4FEA17489E
:204B40001FFA87FC0121B3FBF8F0220C08FB103642EA06460CFB00F3B34207D9F61900F143
:204B6000FF3202D2B34200F2CE801046F61AA2B2B6FBF8F308FB136642EA06440CFB03FCAD
:204B8000A44507D9E41903F1FF3202D2A44500F2B5801346CCEB040443EA00409CE72946CF
:204BA0002846BDE8F087CEF1200106FA0EF307FA0EF720FA01F94FEA1748CE4049EA03098B
:204BC000B6FBF8FA4FEA194408FB1A661FFA87FC44EA06430AFB0CF29A4200FA0EF40AD948
:204BE000DB190AF1FF3180F087809A4240F28480AAF1020A3B449B1A1FFA89F9B3FBF8F100
:204C000008FB113349EA034301FB0CF69E4207D9DB1901F1FF326BD29E4269D902393B44E6
:204C20009B1B41EA0A418EE7C1F1200E22FA0EF48B40234320FA0EF706FA01F44FEA134CF8
:204C400026FA0EF63C43B6FBFCF9270C0CFB19661FFA83F847EA064609FB08F7B74202FA49
:204C600001F200FA01FA08D9F61809F1FF3041D2B7423FD9A9F102091E44F61BA0B2B6FBF5
:204C8000FCF40CFB146640EA064704FB08F8B84507D9FF1804F1FF3028D2B84526D9023CE1
:204CA0001F4444EA0940C8EB0707A0FB02894F4544464E4614D329D065B3BAEB040367EB8B
:204CC000060707FA0EFECB40CF404EEA030385E888000021BDE8F0871346F8E61046E0E6DD
:204CE000B8EB020469EB03060138E5E70446D8E7114695E78146C0E78A467CE7023B3C446F
:204D000048E708460AE702383E442FE7C245E7D33E46D1E72946BDE8F08700BF704700BF96
:204D200038B5124B1C68A36B0546D3B9182000F059F843F20E33A06303804AF6CD33438048
:204D400041F2342383804EF26D63C3804DF6EC630381052343810B23838101220023C0E950
:204D60000423A36B00221D615A6138BD60000020194B10B51C68A36BD3B9182000F032F895
:204D800043F20E33A06303804AF6CD33438041F2342383804EF26D63C3804DF6EC6303811E
:204DA000052343810B23838101220023C0E90423A16B0A4C0B694869094A5C4302FB004009
:204DC000A3FB02230132034443F10003C1E9042323F0004010BD00BF600000202DF4515865
:204DE0002D7F954C024B0146186800F003B800BF6000002070B5CD1C25F0030508350C2D87
:204E000038BF0C25002D064603DA0C233360002070BDA942F9D81F4B1C681A462146A1B142
:204E20000B685B1B0ED40B2B03D90B60CC18CD501EE08C420DBF63684B686360136018BF06
:204E40000C4615E00C464968E9E7134C23681BB9304600F023F820602946304600F01EF88E
:204E6000431CD2D0C41C24F00304A0420AD1256004F10B00231D20F00700C31A09D05A424B
:204E8000E25070BD211A304600F008F80130EED1BBE770BDB80F0020B40F002038B5064C4A
:204EA0000023054608462360FEF764FD431C02D1236803B12B6038BD141000200244034699
:204EC000934202D003F8011BFAE7704710B501390244904207D010F8013B11F8014FA3420C
:204EE000F7D0181B10BD002010BD10B5431E0A44914204D011F8014B03F8014FF8E710BD97
:204F0000F8B500BFF8BC08BC9E467047F8B500BFF8BC08BC9E467047000000200D00010E57
:204F200000010F0001100001427574746F6E203400000000427574746F6E203300000000B0
:204F4000427574746F6E203200000000427574746F6E20310000000054656D706572617474
:204F600075726500584F0000450400002D04000041040000FF0006000000000000B000408A
:204F80000B00030001000000D0070000060000006E524635323834302049454545000000E4
:204FA000455252005B252D34733A20252D3130735D200000546F6F206C6F6E673A202575C1
:204FC0002062797465732C206D61782025750A0054583A20746F6F206C6F6E67202825752A
:204FE000206279746573290A000000006E52463532383430204945454520524620647269DF
:2050000076657200C10F0000A10C0000D50E0000AD0F0000610B0000B10D00001D0A0000D6
:20502000850A0000910D000055080000650800000D0E0000AD0A0000910900004D61696E88
:2050400000000000494E464F000000005374617274696E6720436F6E74696B692D4E472DF8
:2050600072656C656173652F76342E362D35382D676161366532366634330A002D20526F3A
:205080007574696E673A2025730A00002D204E65743A2025730A00002D204D41433A2025E0
:2050A000730A00002D203830322E31352E342050414E49443A203078253034780A000000FD
:2050C0002D203830322E31352E342044656661756C74206368616E6E656C3A2025750A0017
:2050E0004E6F64652049443A2025750A000000004C696E6B2D6C6179657220616464726587
:2051000073733A20000000004374696D65722070726F6365737300004576656E74207469CD
:205120006D657200284E554C4C204C4C20616464722900002E0000002530327800000000FF
:205140004C4C2D4E554C4C004C4C2D2530347800616C6C004E2F41004E6F6E650000000002
:205160004572726F727300005761726E696E677300000000496E666F00000000446562755D
:205180006700000072706C0074637069700000006970763600000000366C6F7770616E00EE
:2051A0006E756C6C6E6574006D6163006672616D6572000036746F7000000000636F617013
:2051C00000000000736E6D70000000006C776D326D0000006D61696E0000000053746163F2
:2051E0006B000000436865636B20696E20696E636F6E73697374656E742073746174653AB3
:2052000020256C642076732E20256C640A000000436865636B206661696C65643A20256CD5
:20522000642076732E20256C640A0000537461636B20636865636B0053656E736F727300B3
:20524000427574746F6E2048414C2070726F63657373000053657269616C20647269766524
:205260007200000000000000000000006D3900006539000069370000303030303030303058
:20528000303030303030303030313233343536373839414243444546000000003031323326
:2052A0003435363738396162636465660000000030580000307800002D00000020000000D5
:2052C0002B000000286E756C6C290000250000002020202020202020202020202020202072
:2052E00043534D4100000000E0520000AD480000FD47000001480000A5470000B1470000F2
:20530000BD470000A0510000D148000031490000DD48000068530000C54900007949000055
:20532000BD490000C1490000A54900007D49000081490000A9490000AD490000B1490000FD
:20534000B549000085490000894900008D490000914900009549000099490000B94900003D
:205360009D490000A14900006E756C6C726F7574696E67008802002000000000436C696375
:205380006B6572206261736573746174696F6E0043000000000000000CAFFF7F0100000091
:2053A0000000000000000000000000000000000000000000000000000000000000000000ED
:2053C0009053000000000000000000000000000000000000000000000000000000000000EA
:2053E0000000000000000000000000000000000000000000000000000000000000000000AD
:2054000000000020000000000000000000000000000000000000000000000000000000006C
:2054200000000000000000000000000000000000000000000000000000000000000000006C
:2054400000000000284F0000010019000100000000030000C800002018010020680100200D
:205460006400002000000000000000000000000000000000000000000000000000000000A8
:2054800000000000000000000000000000000000000000000000000000000000000000000C
:2054A00000000000000000004C4F000001000B000100000000000000000000000000000044
:2054C0000000000000000000000000000000000000000000000000000000000000000000CC
:2054E000000000000000000000000000000000000000000000000000404F000001000C0010
:20550000010000000001000000000000000000000000000000000000000000000000000089
:2055200000000000000000000000000000000000000000000000000000000000000000006B
:205540000000000000000000344F0000010018000100000000020000644F000000000000F9
:2055600000001A010214021400000000EC4F0000490C0000000000000090D00300000000F1
:2055800008510000A51E0000000000000000000018510000812000000000000003000000E2
:2055A000000000002C5200000D260000000000000000000038520000112900000000000076
:2055C00000000000405200003D2A0000000000000000000054520000152E000000000000E9
:2055E000040008005C0D0020D4070020AC000800540D0020F407002020100020A1390000A1
:20560000000000000C000800640E0020740E00200C0008006C0E0020D80E00203800020054
:20562000380F00203C0F0020000000007C530000C949000000000000CDAB00006D020000D0
:0856400045020000000000001B
:0400000500001CC11A
:00000001FF
